:1000000023C03DC03CC03FC13AC07AC0AFC014C19C
:1000100036C099C134C033C032C031C030C02FC0E7
:100020002EC02DC02CC041C441C449C448C447C4DB
:1000300046C43DC43DC443C43CC43CC43CC43CC4AD
:100040003EC43BC43CC43AC411241FBECFE5D4E037
:10005000DEBFCDBF10E0A0E6B0E0EEE6FAE002C001
:1000600005900D92A239B107D9F720E0A2E9B0E0DE
:1000700001C01D92A13BB207E1F7B0D4F6C4C0CFD6
:1000800089B7886389BF88E290E09BBD8ABD82E31F
:1000900090E099BD88BD8EB5836C8EBD089584B304
:1000A0008F6384BB81B3806E81BB8091600083BD10
:1000B00089B7806889BF8CE085BD089587B38E6F4E
:1000C00087BB88B38E6F88BB81B3816181BB82B3EC
:1000D000816182BB89B7816089BF83B7846083BF38
:1000E000089520919C002A3739F4FC0120812F5F6C
:1000F000208310929C0008952F5F20939C00089508
:100100001F920F920FB60F9211242F938F939F93EC
:10011000EF93FF931DBC1CBC86B597B5843191400D
:1001200018F010929B0018C086B597B503962091E1
:100130009B00E22FF0E08F3F910529F020F0E0587E
:10014000FF4F8FEF05C086B597B58D5FE058FF4F25
:1001500080832F5F20939B00FF91EF919F918F9160
:100160002F910F900FBE0F901F9018951F920F9216
:100170000FB60F9211242F933F938F939F93EF937A
:10018000FF9380918400863FA0F020919A00273051
:1001900070F4822F90E0FC01E058FF4F3081FC01A9
:1001A000EE58FF4F30832F5F20939A0002C01092C9
:1001B0009A00809184008238A0F420919A00273020
:1001C00070F4822F90E0FC01E058FF4F3081FC0179
:1001D000E758FF4F30832F5F20939A0002C01092A0
:1001E0009A008091720080936000809173008093E8
:1001F0006100809177008093620080917F008093FE
:10020000630080917E008093640080917B008093E6
:10021000650080917A0080936600809179008093D8
:100220006700FF91EF919F918F913F912F910F90D8
:100230000FBE0F901F9018951F920F920FB60F923E
:1002400011242F933F934F935F936F937F938F93DB
:100250009F93AF93BF93EF93FF9368E970E082E7BA
:1002600090E0FCD0FF91EF91BF91AF919F918F9162
:100270007F916F915F914F913F912F910F900FBEA2
:100280000F901F9018951F920F920FB60F92112486
:100290008F939F93EF93FF9380919900863050F452
:1002A00095B3E0919900F0E0E759FF4F8081809588
:1002B000892385BB80919900893070F480919900E1
:1002C000863050F092B3E0919900F0E0E759FF4F8B
:1002D00080818095892382BB809199008F5F809374
:1002E0009900893010F01092990080919900863021
:1002F00048F485B3E0919900F0E0E759FF4F908111
:10030000892B85BB80919900893068F48091990090
:10031000863048F082B3E0919900F0E0E759FF4F52
:100320009081892B82BBE0919900F0E0E05AFF4F69
:10033000808183BDFF91EF919F918F910F900FBEB0
:100340000F901F9018951F920F920FB60F921124C5
:100350002F933F934F935F936F937F938F939F93CD
:10036000AF93BF93EF93FF9388E990E0BADE12D08A
:10037000A7D2FF91EF91BF91AF919F918F917F9104
:100380006F915F914F913F912F910F900FBE0F9002
:100390001F90189580919700813061F480919D00A5
:1003A0008F778F3709F4C39880919D008F778F33B3
:1003B00009F4C39A80919600813061F480919D0088
:1003C0008F778F3709F4C49880919D008F778F3392
:1003D00009F4C49A80919500813071F480919D0058
:1003E0008F778F3711F4C398C49880919D008F77D1
:1003F0008F3311F4C39AC49A80919400813091F4A0
:1004000080919D008F778F3721F4C398C498C59849
:10041000C69880919D008F778F3321F4C39AC49A38
:10042000C59AC69A80919300813091F480919D0085
:100430008F778F3721F4C398C49AC598C69A809154
:100440009D008F778F3321F4C39AC498C59AC698BC
:1004500080919D008F5F80939D000895FC018181B4
:1004600094E1980F933118F491E09093A40097E8E9
:10047000980F933118F492E09093A4008E5A8D3126
:10048000C8F48091A400813019F0823051F012C07C
:100490001092A40080919700813019F41092970077
:1004A000C39A1092A40080919600813019F41092A2
:1004B0009600C49A928184E1890F8331D8F48091A7
:1004C000A300823081F030F4882359F0813091F418
:1004D00082E00EC0843059F040F0853059F486E057
:1004E00007C081E005C083E003C084E001C085E06F
:1004F0008093A2009957933118F48CED8093680093
:1005000082818759833118F48CEB80936800828153
:100510008E5A8D3198F48091A200833069F028F4CE
:10052000813051F0823041F009C0853029F018F057
:10053000863011F003C084E08093A300838194E1AE
:10054000980F933178F49091A300973031F0983060
:1005500031F0911107C097E003C098E001C099E025
:100560009093A10097E8980F933178F49091A300AD
:100570009A3031F09B3031F0911107C09AE003C0FE
:100580009BE001C09CE09093A1008E5A8D3198F4BD
:100590008091A100893069F028F4873051F08830CB
:1005A00041F009C08B3029F018F08C3011F003C0F5
:1005B0008AE08093A30086818B3E58F09091A3003F
:1005C000992321F09D3029F49EE001C09DE0909395
:1005D000A00098E8980F953158F49091A3009923C2
:1005E00021F09F3029F490E101C09FE09093A0009A
:1005F0008D5A8F3170F48091A0008E3041F018F444
:100600008D3029F006C08F3011F0803111F48093C5
:10061000A30082858B3E58F09091A300992321F08E
:10062000913129F492E101C091E190939F0098E803
:10063000980F953158F49091A300992321F09331AC
:1006400029F494E101C093E190939F008D5A8F317A
:1006500070F480919F00823141F018F4813129F0CB
:1006600006C0833111F0843111F48093A30080918E
:100670009E00FA0180839091A3009923F1F08111EB
:1006800005C0FB01108281E080939E0080919E0056
:10069000813099F4FB018081823079F483EA90E023
:1006A000F9D01092A3001092A2001092A100109213
:1006B000A00010929F0010929E0008958091A900C2
:1006C000811105C0C19881E08093A900089581300F
:1006D00019F4C19A1092A90008958091A80081117F
:1006E00005C0C29881E08093A8000895813019F474
:1006F000C29A1092A80008958091A700811105C0A8
:10070000C79881E08093A7000895813019F4C79AB3
:100710001092A70008958091970081110FC0C49A8C
:10072000C59AC69A10929600109295001092940065
:100730001092930081E08093970008958091970034
:10074000813019F4C39A1092970008958091960011
:1007500081110FC0C39AC59AC69A10929700109241
:100760009500109294001092930081E0809396007F
:10077000089580919600813019F4C49A10929600E1
:1007800008958091950081110EC0109297001092EB
:1007900096001092940010929300C59AC69A81E038
:1007A00080939500089580919500813021F41092F6
:1007B0009500C39AC49A08958091940081110CC049
:1007C000109297001092960010929500109293004C
:1007D00081E080939400089580919400813031F4F9
:1007E00010929400C39AC49AC59AC69A08958091AB
:1007F000930081110CC010929700109296001092F5
:1008000095001092940081E0809393000895809168
:100810009300813031F410929300C39AC49AC59A20
:10082000C69A08958091A60081110BC01092A50070
:1008300085EA8093680081E08093A600809392000F
:100840000895813051F482B3816182BB8CEB809337
:1008500068001092A6001092920008958091A50061
:1008600081110BC01092A6008BE98093680081E093
:100870008093A500809392000895813051F482B353
:10088000816182BB8CEB809368001092A50010926E
:1008900092000895FC01808190E0FC013197E131E4
:1008A000F10568F4ED5EFF4F099408CF16CF33CF02
:1008B00068CF4CCF81CF9BCFD1CFB4CF1DCF089580
:1008C000809192008130C1F58091AB008734C0F4F3
:1008D000873059F018F4882331F008C08E3019F0B1
:1008E000853119F003C0909801C0909A8091AB00B7
:1008F000863420F48F5F8093AB0002C01092AB006F
:100900008091AA008334C0F4873059F018F488230A
:1009100031F008C08E3019F0853119F003C0949879
:1009200001C0949A8091AA00823420F48F5F809352
:10093000AA0008951092AA000895539A80B5866877
:1009400080BD10BC83E389B908955D9BFECF8CB94F
:100950000895CF93DF93EC018991882311F0F5DF9F
:10096000FBCFDF91CF9108951F93CF93DF93EC01DD
:100970001091B000193048F58FE890E0EADF81E38C
:10098000810FE3DF80E990E0E4DFC10FD11D8881B2
:100990004AE06CEA70E090E035D08CEA90E0D9DF74
:1009A0008DE890E0D6DF8091B0008F5F8093B0003B
:1009B0002FE788E391E0215080409040E1F700C0AC
:1009C0000000DF91CF911F9108951092B0008AE04E
:1009D000BCDF8DE0DF91CF911F91B7CF51DB5FDBA3
:1009E0006DDBABDF78948AE0B0DF8DE0AEDF87E8C7
:1009F00090E0AFDF8AE0A9DF8DE0A7DF82E790E03B
:100A0000B3DFFCCFBB274A3031F4992322F4BDE297
:100A1000909581959F4F01C0BB27FB015527AA27C1
:100A2000880F991FAA1FA41710F0A41B839550517B
:100A3000B9F7A05DAA3308F0A95DA193009779F7F3
:100A4000B111B1931192CB0100C0DC01FC01672F01
:100A500071917723E1F7329704C07C916D93708395
:0E0A60006291AE17BF07C8F30895F894FFCF58
:100A6E00BCBCBCBCBCBCBCBCBC010204081020405D
:100A7E008020BCBCBCBCBCBCBCBCBCBCBCBCBCBC80
:100A8E00BCBCBCBCBCBCBC53746172743A20004B81
:020A9E003A001C
:00000001FF
