:1000000023C03DC03CC042C13AC07DC0B2C017C190
:1000100036C09CC134C033C032C031C030C02FC0E4
:100020002EC02DC02CC044C444C44CC44BC44AC4CC
:1000300049C440C440C446C43FC43FC43FC43FC495
:1000400041C43EC43FC43DC411241FBECFE5D4E02B
:10005000DEBFCDBF10E0A0E6B0E0EEE4F9E002C004
:1000600005900D92A838B107D9F720E0A8E8B0E0D4
:1000700001C01D92A23AB207E1F762D466C4C0CFB4
:1000800089B7886389BF88E290E09BBD8ABD82E31F
:1000900090E099BD88BD8EB5836C8EBD089584B304
:1000A0008F6384BB81B3806E81BB8091600083BD10
:1000B00089B7806889BF8CE085BD089587B38E6F4E
:1000C00087BB88B3817E88BB88B3806E88BB81B3D1
:1000D000816181BB82B3816182BB89B7816089BF45
:1000E00083B7846083BF0895209192002A3739F442
:1000F000FC0120812F5F20831092920008952F5FD2
:100100002093920008951F920F920FB60F92112420
:100110002F938F939F93EF93FF931DBC1CBC86B5C9
:1001200097B58431914018F01092910018C086B5AF
:1001300097B5039620919100E22FF0E08F3F910553
:1001400029F020F0E058FF4F8FEF05C086B597B536
:100150008D5FE058FF4F80832F5F20939100FF91C8
:10016000EF919F918F912F910F900FBE0F901F9045
:1001700018951F920F920FB60F9211242F933F9351
:100180008F939F93EF93FF9380918400863FA0F01D
:1001900020919000273070F4822F90E0FC01E0580D
:1001A000FF4F3081FC01EE58FF4F30832F5F2093CB
:1001B000900002C010929000809184008238A0F4D8
:1001C00020919000273070F4822F90E0FC01E058DD
:1001D000FF4F3081FC01E758FF4F30832F5F2093A2
:1001E000900002C010929000809172008093600095
:1001F000809173008093610080917700809362000A
:1002000080917F008093630080917E0080936400E2
:1002100080917B008093650080917A0080936600D6
:100220008091790080936700FF91EF919F918F916A
:100230003F912F910F900FBE0F901F9018951F9216
:100240000F920FB60F9211242F933F934F935F930A
:100250006F937F938F939F93AF93BF93EF93FF938E
:100260006EE870E082E790E0FCD0FF91EF91BF91E3
:10027000AF919F918F917F916F915F914F913F913E
:100280002F910F900FBE0F901F9018951F920F92F5
:100290000FB60F9211248F939F93EF93FF9380914A
:1002A0008F00863050F495B3E0918F00F0E0E7596D
:1002B000FF4F80818095892385BB80918F00893095
:1002C00070F480918F00863050F092B3E0918F00EF
:1002D000F0E0E759FF4F80818095892382BB8091B0
:1002E0008F008F5F80938F00893010F010928F0005
:1002F00080918F00863048F485B3E0918F00F0E064
:10030000E759FF4F9081892B85BB80918F00893001
:1003100068F480918F00863048F082B3E0918F00BE
:10032000F0E0E759FF4F9081892B82BBE0918F006D
:10033000F0E0E05AFF4F808183BDFF91EF919F91E4
:100340008F910F900FBE0F901F9018951F920F92D4
:100350000FB60F9211242F933F934F935F936F9398
:100360007F938F939F93AF93BF93EF93FF938EE809
:1003700090E0BADE12D0A7D2FF91EF91BF91AF917A
:100380009F918F917F916F915F914F913F912F91AD
:100390000F900FBE0F901F90189580918D008130A7
:1003A00061F4809193008F778F3709F4C19A80911F
:1003B00093008F778F3309F4C19880918C0081303E
:1003C00061F4809193008F778F3709F4C29A8091FE
:1003D00093008F778F3309F4C29880918B0081301E
:1003E00071F4809193008F778F3711F4C19AC29A7C
:1003F000809193008F778F3311F4C198C2988091C8
:100400008A00813091F4809193008F778F3721F4A7
:10041000C19AC29AC598C698809193008F778F33FE
:1004200021F4C198C298C59AC69A809189008130FA
:1004300091F4809193008F778F3721F4C19AC298FD
:10044000C598C69A809193008F778F3321F4C19815
:10045000C29AC59AC698809193008F5F809393004B
:100460000895FC01818194E1980F933118F491E093
:1004700090939A0097E8980F933118F492E0909334
:100480009A008E5A8D31C8F480919A00813019F00B
:10049000823051F012C010929A0080918D0081300C
:1004A00019F410928D00C39A10929A0080918C00DA
:1004B000813019F410928C00C49A928184E1890FE2
:1004C0008331D8F480919900823081F030F4882310
:1004D00059F0813091F482E00EC0843059F040F040
:1004E000853059F486E007C081E005C083E003C091
:1004F00084E001C085E0809398009957933118F407
:100500008CED8093680082818759833118F48CEBDD
:100510008093680082818E5A8D3198F48091980082
:10052000833069F028F4813051F0823041F009C005
:10053000853029F018F0863011F003C084E08093F4
:100540009900838194E1980F933178F49091990008
:10055000973031F0983031F0911107C097E003C027
:1005600098E001C099E09093970097E8980F933135
:1005700078F4909199009A3031F09B3031F09111DC
:1005800007C09AE003C09BE001C09CE090939700F5
:100590008E5A8D3198F480919700893069F028F453
:1005A000873051F0883041F009C08B3029F018F0C5
:1005B0008C3011F003C08AE08093990086818B3ED5
:1005C00058F090919900992321F09D3029F49EE0F4
:1005D00001C09DE09093960098E8980F953158F4EB
:1005E00090919900992321F09F3029F490E101C066
:1005F0009FE0909396008D5A8F3170F48091960011
:100600008E3041F018F48D3029F006C08F3011F093
:10061000803111F48093990082858B3E58F090913F
:100620009900992321F0913129F492E101C091E1DF
:100630009093950098E8980F953158F4909199000F
:10064000992321F0933129F494E101C093E190932F
:1006500095008D5A8F3170F480919500823141F070
:1006600018F4813129F006C0833111F0843111F47E
:100670008093990080919400FA0180839091990071
:100680009923F1F0811105C0FB01108281E0809374
:10069000940080919400813099F4FB018081823034
:1006A00079F489E990E0F9D01092990010929800BD
:1006B000109297001092960010929500109294005C
:1006C000089580919D00811105C0C39A81E08093B7
:1006D0009D000895813019F4C39810929D000895EB
:1006E00080919C00811105C0C49A81E080939C0098
:1006F0000895813019F4C49810929C000895809157
:100700009B00811105C0C79881E080939B000895EC
:10071000813019F4C79A10929B00089580918D0042
:1007200081110FC0C498C59AC69A10928C0010927D
:100730008B0010928A001092890081E080938D00D6
:10074000089580918D00813019F4C39810928D0026
:10075000089580918C0081110FC0C398C59AC69AE4
:1007600010928D0010928B0010928A0010928900D6
:1007700081E080938C00089580918C00813019F481
:10078000C49810928C00089580918B0081110EC046
:1007900010928D0010928C0010928A0010928900A5
:1007A000C59AC69A81E080938B00089580918B0052
:1007B000813021F410928B00C398C49808958091E1
:1007C0008A0081110CC010928D0010928C00109242
:1007D0008B001092890081E080938A0008958091B7
:1007E0008A00813031F410928A00C398C498C59A67
:1007F000C69A08958091890081110CC010928D00D5
:1008000010928C0010928B0010928A0081E08093ED
:100810008900089580918900813031F41092890017
:10082000C398C498C59AC69A089580919E00811174
:100830000BC010929F0085EA8093680081E080934E
:100840009E00809388000895813051F482B38161C5
:1008500082BB8CEB8093680010929E0010928800FF
:10086000089580919F0081110BC010929E008BE92A
:100870008093680081E080939F00809388000895B2
:10088000813051F482B3816182BB8CEB809368002C
:1008900010929F00109288000895FC01808190E0E2
:1008A000FC013197E131F10568F4ED5EFF4F0994E9
:1008B00008CF16CF33CF68CF4CCF81CF9BCFD1CFCE
:1008C000B4CF1DCF0895809188008130C1F580910B
:1008D000A1008734C0F4873059F018F4882331F030
:1008E00008C08E3019F0853119F003C0909801C00E
:1008F000909A8091A100863420F48F5F8093A100AC
:1009000002C01092A1008091A0008334C0F487300F
:1009100059F018F4882331F008C08E3019F0853171
:1009200019F003C0949801C0949A8091A000823479
:1009300020F48F5F8093A00008951092A000089586
:0E0940009FDBADDBBBDB7894FFCFF894FFCFDD
:10094E00BCBCBCBCBCBCBCBCBC010204081020407E
:10095E008020BCBCBCBCBCBCBCBCBCBCBCBCBCBCA1
:08096E00BCBCBCBCBCBCBC005D
:00000001FF
