:1000000023C03DC03CC018C13AC07AC0B1C0B1C124
:1000100036C088C134C033C032C031C030C02FC0F8
:100020002EC02DC02CC069C46AC47AC479C478C4F7
:1000300077C467C468C474C468C469C46AC46BC440
:100040006FC46BC46DC46BC411241FBECFE5D4E074
:10005000DEBFCDBF10E0A0E6B0E0E0EDFAE002C008
:1000600005900D92A639B107D9F710E0A6E9B0E0E6
:1000700001C01D92A53BB107E1F740D127C5C0CF14
:1000800089B7886389BF88E290E09BBD8ABD82E31F
:1000900090E099BD88BD8EB5836C8EBD089584B304
:1000A0008F6384BB81B3806E81BB8091860083BDEA
:1000B00089B7806889BF8CE085BD089587B38E6F4E
:1000C00087BB88B38E6F88BB81B3816181BB82B3EC
:1000D000816182BB89B7816089BF83B7846083BF38
:1000E0000895FC018091A0008A3731F480818F5FF0
:1000F00080831092A00008958F5F8093A0000895E0
:100100001F920F920FB60F9211242F938F939F93EC
:10011000EF93FF931DBC1CBC86B597B584519140ED
:1001200018F010929F001AC086B597B503962091DB
:100130009F008F3F910539F030F0E22FF0E0E85951
:10014000FF4F8FEF07C0E22FF0E086B597B58D5FC8
:10015000E859FF4F80832F5F20939F00FF91EF911D
:100160009F918F912F910F900FBE0F901F90189518
:100170001F920F920FB60F9211248F939F93AF93FC
:10018000BF93EF93FF9380916C00863F98F090911E
:100190009E00973068F4E92FF0E0DF01A859BF4FC7
:1001A0008C91E159FF4F80839F5F90939E0002C026
:1001B00010929E0080916C00823898F490919E007D
:1001C000973068F4E92FF0E0DF01A859BF4F8C9118
:1001D000EA58FF4F80839F5F90939E0002C0109269
:1001E0009E0080916F0080938600809170008093C4
:1001F0008700809174008093880080917C008093B8
:10020000890080917B0080938A00809178008093A0
:100210008B008091770080938C0080917600809392
:100220008D00FF91EF91BF91AF919F918F910F90B2
:100230000FBE0F901F9018951F920F920FB60F923E
:1002400011248F939F93EF93FF9380919D008630AD
:1002500050F485B3E0919D00F0E0E358FF4F9081AA
:100260009095982395BB80919D00893070F4809182
:100270009D00863050F082B3E0919D00F0E0E3589D
:10028000FF4F90819095982392BB80919D008F5F46
:1002900080939D0080919D00893010F010929D0008
:1002A00080919D00863048F485B3E0919D00F0E098
:1002B000E358FF4F9081892B85BB80919D00893049
:1002C00068F480919D00863048F082B3E0919D00F3
:1002D000F0E0E358FF4F9081892B82BBE0919D00B5
:1002E000F0E0EA57FF4F808183BDFF91EF919F912E
:1002F0008F910F900FBE0F901F901895C1DECFDE2B
:10030000DDDE4CD378948AE051D38DE04FD380E684
:1003100090E050D38AE04AD38DE048D38FE690E056
:1003200053D3FCCF1F920F920FB60F9211242F932D
:100330003F934F935F936F937F938F939F93AF936D
:10034000BF93EF93FF9386E990E0CBDE39D0E9D2FB
:10035000FF91EF91BF91AF919F918F917F916F919D
:100360005F914F913F912F910F900FBE0F901F9073
:1003700018951F920F920FB60F9211242F933F934F
:100380004F935F936F937F938F939F93AF93BF939D
:10039000EF93FF938FE690E066E970E075D0FF91F0
:1003A000EF91BF91AF919F918F917F916F915F91ED
:1003B0004F913F912F910F900FBE0F901F90189566
:1003C00080919700813061F48091A1008F3711F006
:1003D0008F3F09F4C3988F3311F08F3B09F4C39A10
:1003E00080919800813061F48091A1008F3711F0E5
:1003F0008F3F09F4C4988F3311F08F3B09F4C49AEE
:1004000080919900813071F48091A1008F3711F0B3
:100410008F3F11F4C398C4988F3311F08F3B11F4C0
:10042000C39AC49A80919A00813091F48091A1007E
:100430008F3711F08F3F21F4C398C498C598C698A0
:100440008F3311F08F3B21F4C39AC49AC59AC69A90
:1004500080919B00813091F48091A1008F3711F041
:100460008F3F21F4C398C49AC598C69A8F3311F070
:100470008F3B21F4C39AC498C59AC6988091A10075
:100480008F5F8093A1000895CF93DF93FC01DB0180
:10049000EA019181892F8C5E833118F481E0809389
:1004A000A800892F8957833118F482E08093A8002F
:1004B0009E5A9D31C8F48091A800813019F0823095
:1004C00099F409C01092A80080919700813019F426
:1004D00010929700C39A1092A800809198008130E2
:1004E00019F410929800C49A9281892F8C5E8331FE
:1004F000F8F48091A700823091F0833028F48823AB
:1005000051F08130A9F409C0843069F0843048F09A
:10051000853071F40AC081E009C082E007C083E041
:1005200005C084E003C085E001C086E08093A6009A
:100530009957933118F48CED80938E0082818759FE
:10054000833118F48CEB80938E0082818E5A8D312A
:10055000A8F48091A600833079F0843028F48130AB
:1005600059F0823059F408C0853031F0853018F0E8
:10057000863021F401C084E08093A7009381892F05
:100580008C5E833178F48091A700873031F0883019
:1005900031F0882339F487E003C088E001C089E0A6
:1005A0008093A500892F8957833180F48091A7001B
:1005B000882329F08A3029F08B3041F404C08AE086
:1005C00003C08BE001C08CE08093A5009E5A9D3152
:1005D000A8F48091A500893079F08A3028F487301A
:1005E00059F0883059F408C08B3031F08B3018F056
:1005F0008C3021F401C08AE08093A70096819B3E55
:1006000060F08091A700882319F08D3031F402C08A
:100610008DE001C08EE08093A400892F885785313A
:1006200060F48091A700882319F08F3031F402C064
:100630008FE001C080E18093A4009D5A9F3178F43F
:100640008091A4008E3049F08F3018F48D3039F449
:1006500004C08F3011F0803111F48093A70092858F
:100660009B3E60F08091A700882319F0813131F41E
:1006700002C081E101C082E18093A300892F8857E5
:10068000853160F48091A700882319F0833131F41B
:1006900002C083E101C084E18093A3009D5A9F3191
:1006A00078F48091A300823149F0833118F48131CC
:1006B00039F404C0833111F0843111F48093A70020
:1006C0009091A20098838091A7008823E1F099235C
:1006D00021F41C9281E08093A2008091A2008130DD
:1006E00091F48C91823079F487EA90E0FBD01092FB
:1006F000A7001092A6001092A5001092A4001092DC
:10070000A3001092A200DF91CF9108958091AD00D7
:10071000882329F4C19881E08093AD000895813049
:1007200019F4C19A1092AD0008958091AC0088230D
:1007300029F4C29881E08093AC000895813019F4C7
:10074000C29A1092AC0008958091AB00882329F4DE
:10075000C79881E08093AB000895813019F4C79A5F
:100760001092AB00089580919700882379F4C49A81
:10077000C59AC69A109298001092990010929A0009
:1007800010929B0081E080939700089580919700DC
:10079000813019F4C39A10929700089580919800BF
:1007A000882379F4C39AC59AC69A1092970010923A
:1007B000990010929A0010929B0081E0809398001B
:1007C000089580919800813019F4C49A109298008D
:1007D000089580919900882371F4109297001092E7
:1007E000980010929A0010929B00C59AC69A81E0D8
:1007F00080939900089580919900813021F410929E
:100800009900C39AC49A089580919A00882361F44C
:1008100010929700109298001092990010929B00ED
:1008200081E080939A00089580919A00813031F49C
:1008300010929A00C39AC49AC59AC69A0895809154
:100840009B00882361F410929700109298001092F8
:10085000990010929A0081E080939B000895809106
:100860009B00813031F410929B00C39AC49AC59AC0
:10087000C69A08958091AA00882359F41092A9007D
:1008800085EA80938E0081E08093AA0080939C008B
:100890000895813051F482B3816182BB8CEB8093E7
:1008A0008E001092AA0010929C0008958091A900D9
:1008B000882359F41092AA008BE980938E0081E07E
:1008C0008093A90080939C000895813051F482B3F5
:1008D000816182BB8CEB80938E001092A9001092F4
:1008E0009C000895FC01808190E0FC013197E1318A
:1008F000F105B0F4ED5EFF4F099408DF089515DFB0
:10090000089531DF089565DF089548DF08957CDF9D
:10091000089595DF0895CADF0895ACDF089514DFC8
:10092000089580919C008130C1F58091AE0087349C
:10093000C0F4873061F0883018F4882331F009C0A2
:100940008E3019F0853129F402C0909804C0909A35
:1009500002C0863421F08F5F8093AE0002C01092F7
:10096000AE008091AF008334C0F4873061F08830EE
:1009700018F4882331F009C08E3019F0853129F43C
:1009800002C0949804C0949A02C0823421F08F5F10
:100990008093AF0008951092AF000895539A80B5E8
:1009A000866880BD10BC83E389B908955D9BFECF46
:1009B0008CB90895FC0104C05D9BFECF8CB93196C3
:1009C00080818823C9F708951F93CF93DF93EC01AB
:1009D0001091B000193048F58FE890E0EBDF5D9B97
:1009E000FECF1F5C1CB9115382E990E0E3DFC10F19
:1009F000D11D888190E061EB70E04AE050E023D0A7
:100A000081EB90E0D7DF84E990E0D4DF8091B00003
:100A10008F5F8093B00084EF91E028EC30E0F90123
:100A20003197F1F70197D9F70AC01092B0005D9B9A
:100A3000FECF8AE08CB95D9BFECF8DE08CB9DF9153
:100A4000CF911F910895FB019F01E8944230BCF0C3
:100A50004532ACF44A3029F497FB1EF49095819509
:100A60009F4F642F77271ED0805D8A330CF0895DFD
:100A70008193CB010097A9F716F45DE251931082A0
:100A8000C90100C0DC01FC01672F71917723E1F7F8
:100A9000329704C07C916D9370836291AE17BF074B
:100AA000C8F30895AA1BBB1B51E107C0AA1FBB1FB7
:100AB000A617B70710F0A61BB70B881F991F5A95EA
:100AC000A9F780959095BC01CD010895F894FFCFCA
:100AD00053746172743A2000BCBCBCBCBCBCBCBCCE
:100AE000BCBCBCBCBCBCBCBCBCBCBCBCBC01020473
:100AF000081020408020BCBCBCBCBCBCBCBCBC4BF7
:060B00003A003A0020005B
:00000001FF
